:030000000200FA01
:0C00FA00787FE4F6D8FD7581090200440F
:1000E800C0F9A4B0999282F880908883C6A1868EC0
:0200F800BF7FC8
:10007C00EF24FB601314601914601F24037023E534
:10008C00A0541F4480F5A022E5A0541F44A0F5A065
:10009C0022E5A0541F44C0F5A022E5A0541F44E063
:0300AC00F5A0229A
:1000D200EF1FAA0670011E4A600BE4FDEDC3947B7C
:0500E20050EE0D80F757
:0100E70022F6
:090106007F0512007CE4F5802263
:1000AF00AE077F0612007CAF067401A80708800216
:1000BF00C333D8FCF5807F0712007CED9000E893E6
:0300CF00F5802297
:1000030053B00FE5B0640F60377F0A7E001200D251
:10001300E5B0640F602A53B00FE5B0B407057E0066
:100023007F0422E5B0B40B057E007F0522E5B0B462
:100033000D057E007F0622E5B0B40E047E007F0727
:01004300229A
:03004400120106A0
:100047001200038E088F09E50870F5E50924FB60A7
:100057000E14600F146015240370E57D0180067D82
:100067000280027D03E4FF1200AF80D47D04E4FF29
:050077001200AF80CB78
:00000001FF
