:030000000200FCFF
:0C00FC00787FE4F6D8FD75811002011138
:1000B300C0F9A4B0999282F880908883C6A1868EF5
:0A00C300BF7F0200020000080101E7
:10005C00EF24FB601314601914601F24037023E554
:10006C00A0541F4480F5A022E5A0541F44A0F5A085
:10007C0022E5A0541F44C0F5A022E5A0541F44E083
:03008C00F5A022BA
:1000E600EF1FAA0670011E4A600BE4FDEDC3947B68
:0500F60050EE0D80F743
:0100FB0022E2
:090108007F0512005CE4F5802281
:10008F00AE077F0612005CEE14FF7401A80708800C
:10009F0002C333D8FCF5807F0712005CED9000B3EC
:0400AF0093F5802223
:10000300750800750908750AFF750B00750CC5E4C2
:10001300F50FF510F50DF50EC3E50E9509E508642A
:1000230080F8E50D648098502F0510E510700205E7
:100033000FFFAB0A050CE50CAA0B7002050B14F9B4
:100043001200CDFD12008F7F027E001200E6050E26
:08005300E50E70C4050D80C02C
:01005B002282
:0801110012010812000380FB3B
:1000CD00BB010689828A83E0225002E722BBFE0231
:0900DD00E32289828A83E4932264
:00000001FF
