:03000000020026D5
:0C002600787FE4F6D8FD75810B02006DB8
:1000B2005468652073797374656D20697320727555
:1000C2006E6E696E67210D0A0057656C636F6D6510
:1000D20020746F2053796574656D2120D6ECD3C2EC
:0500E200F7E80D0A0023
:0301B200010B003E
:1000E700EF24FB601314601914601F24037023E5C9
:1000F700A0541F4480F5A022E5A0541F44A0F5A0FA
:1001070022E5A0541F44C0F5A022E5A0541F44E0F7
:03011700F5A0222E
:10019A007F051200E7E4F5801F1200E77580FF2251
:10017000758920758DFD758BFD759850E4F58ED2CF
:060180008ED2AFD2AC22CA
:0300230002001CBC
:07001C0030980385990B32B7
:0801AA008F993099FDC29922E2
:10014B008B088A09890AAB08AA09A90A120003605D
:10015B0013050AE50A7002050914F9120003FF12D0
:05016B0001AA80E22260
:10011A00E50B602C54F02450601124F06016242062
:10012A00701E7F041200E77580FE227F041200E72A
:10013A007580FD227BFF7A0079B212014BE4F50B40
:01014A002292
:1001860012019A1201707BFF7A0079CB12014B1291
:04019600011A80FBCF
:10003200020186E493A3F8E493A34003F68001F25D
:1000420008DFF48029E493A3F85407240CC8C333CF
:10005200C4540F4420C8834004F456800146F6DF9E
:10006200E4800B01020408102040809001B2E47E7B
:10007200019360BCA3FF543F30E509541FFEE49393
:10008200A360010ECF54C025E060A840B8E493A35A
:10009200FAE493A3F8E493A3C8C582C8CAC583CA85
:1000A200F0A3C8C582C8CAC583CADFE9DEE780BE3D
:0101B5000049
:10000300BB010689828A83E0225002E722BBFE02FB
:09001300E32289828A83E493222E
:00000001FF
