:030000000200AA51
:0C00AA00787FE4F6D8FD75810D0200F1AE
:1001B800C0F9A4B0999282F880908883C6A1868EEF
:0201C800BF7FF7
:0401D300020C00001A
:10013600EF24FB601314601914601F24037023E579
:10014600A0541F4480F5A022E5A0541F44A0F5A0AA
:1001560022E5A0541F44C0F5A022E5A0541F44E0A8
:03016600F5A022DF
:10018C00EF1FAA0670011E4A600BE4FDEDC3947BC1
:05019C0050EE0D80F79C
:0101A100223B
:0901CA007F05120136E4F58022E4
:10016900AE077F06120136AF067401A807088002A0
:10017900C333D8FCF5807F07120136ED9001B8939F
:03018900F58022DC
:10000300E4F50AF50B75B00FC2C2C2C453B00FE5D5
:10001300B0640F6073E50B450A706D7F0AFE120131
:100023008CE5B0640F6042E50B450A703CF50A7538
:100033000B01E5B0540FFFBF0E05E4F508F509E524
:10004300B0540FFFBF0D06750800750901E5B054E4
:100053000FFFBF0B06750800750902E5B0540FFFCB
:10006300BF070675080075090375B0F0D2C2D2C484
:1000730020C40390000120C20390000220B5039026
:10008300000320B403900004E50B6401450A7016D5
:10009300E509AE087802C333CE33CED8F92582F50D
:0600A3000DEE3583F50CA3
:0100A9002234
:1001A2001201CA1200037F057E0012018CAD0DE41C
:0601B200FF12016980ED5F
:1000B6000201A2E493A3F8E493A34003F68001F2BD
:1000C60008DFF48029E493A3F85407240CC8C3334B
:1000D600C4540F4420C8834004F456800146F6DF1A
:1000E600E4800B01020408102040809001D3E47ED6
:1000F600019360BCA3FF543F30E509541FFEE4930F
:10010600A360010ECF54C025E060A840B8E493A3D5
:10011600FAE493A3F8E493A3C8C582C8CAC583CA00
:10012600F0A3C8C582C8CAC583CADFE9DEE780BEB8
:0101D7000027
:00000001FF
