:0300000002007F7C
:0C007F00787FE4F6D8FD75810802006D62
:0C008B00E5A0541F44A0F5A0E4F580227D
:10000300D2AFD2ACC2ABD28E759850E4F58E75895F
:0800130020758DFD758BFD22A7
:03002300020026B2
:10002600C0E0C0F0C083C082C0D075D000C000C0A0
:1000360001C002C003C004C005C006C00730980C4A
:10004600C298859908E50804FF12001BD007D00660
:10005600D005D004D003D002D001D000D0D0D082B9
:07006600D083D0F0D0E0329E
:08001B008F993099FDC2992272
:10006D0012008B1200037F5A12001B7FA512001B7A
:02007D0080FE03
:00000001FF
