:030000000200BD3E
:0C00BD00787FE4F6D8FD7581070200AFE3
:10004D00EF24FB601314601914601F24037023E563
:10005D00A0541F4480F5A022E5A0541F44A0F5A094
:10006D0022E5A0541F44C0F5A022E5A0541F44E092
:03007D00F5A022C9
:10009900EF1FAA0670011E4A600BE4FDEDC3947BB5
:0500A90050EE0D80F790
:0100AE00222F
:100080007F0412004DE4F5807FE87E03120099752D
:0900900080FF7FE87E0302009965
:03000300020006F2
:10000600C0E0C083C082C0D075D000C002C005C0A9
:0300160006C0071A
:100019007F0412004D7580FE9000007FD07E07128C
:100029000099E58025E04401F580A3E5826408454F
:030039008370E8E9
:10003C00D007D006D005D002D0D0D082D083D0E06B
:01004C003281
:0900C9007F0512004DE4F58022D0
:0E00AF001200C9D2AFD2A8D28812008080FB06
:00000001FF
