:03000000020003F8
:0C000300787FE4F6D8FD75812002004AE9
:1002EF00C0F9A4B0999282F880908880C6C0868E9B
:0202FF00BF7FBF
:0C031000010A00010900010B00010800B7
:10012A009002EF93FD7F0112027E7FF47E0112019D
:10013A00649002FFE493FD7F0212027E7FF47E0147
:10014A001201647DFF7F0312027E7FF47E01120199
:0A015A00647F0412027E7FF47E0130
:0B016400EF1FAC0670011E4C70F6226D
:0D02710075F00A84E5F09002EF93FD7F0721
:10027E0090E00074FFF07401A807088002C333D821
:0B028E00FC90C000F090E000EDF022BA
:10016F009002FFE493FDE4FF12015DE50912012AFD
:10017F00E50A75F064849002EF93FD7F0512015D2F
:10018F00E50A75F06484E5F075F00A849002EF9348
:10019F00FD7F0612015DE50A1202717FF47E0102F6
:0201AF000164E9
:1001B1009002FFE493FDE4FF12015DE50B12012AB9
:1001C100E50875F064849002EF93FD7F0512015DEF
:1001D100E50875F06484E5F075F00A849002EF9308
:1001E100FD7F0612015DE5081202717FF47E0102B6
:0201F1000164A7
:1002480012031D7F9012021E1203017F0112021E6B
:1002580012030112033512031D7F9112021E1203AD
:09026800011202BB8F0A020335EA
:1000DD00120248E50AD394C8400A90800074FEF0DD
:1000ED0075090122E50AD39496400A90800074FCAC
:1000FD00F075090222E50AD39464400A90800074D9
:10010D00F0F075090322E50AD39432908000400780
:0D011D0074C0F075090422E4F07509052294
:100299008F0C8D0D12031D7FA012021E120301AFD8
:1002A9000C12021E120301AF0D12021E12030102EB
:0202B90003350B
:0201F3008F0C6F
:1001F50012031D7FA012021E120301AF0C12021E74
:1002050012030112031D7FA112021E120301120225
:08021500BB8F0D120335AF0D84
:01021D0022BE
:10008F0020B3277F647E0012016420B31DAD097F6A
:10009F00011202997FE87E03120164AD0A7F0212FA
:1000AF00029920B30512016F80F820B2207F647E81
:1000BF000012016420B2167F011201F38F0B7F0231
:0E00CF001201F38F0820B2051201B180F82251
:0B032A001200DD12016F12008F80F541
:04033F00D2A07F05C4
:040343008F0E0022F7
:0D031D00D2A112033FC2A1120343C2A022CD
:0A033500C2A112033FD2A10203434C
:1002D800C2A0A20092A17F05120343D2A012034339
:0702E800C2A0D2A1020343F2
:0E03010012033FA2A19201C2A0120343A20167
:01030F0022CB
:02021E00AE0729
:10022000E4FDC2A07F05120343EE30E704D2A180B3
:1002300002C2A17F05120343D2A0EE25E0FE120305
:07024000430DBD08DDC2A063
:010247002294
:1002BB00E4FD12033FEE25E0FE30A103430601C22D
:0C02CB00A07F051203430DBD08E8AF063C
:0102D7002204
:10000F0002032AE493A3F8E493A34003F68001F2DA
:10001F0008DFF48029E493A3F85407240CC8C333F2
:10002F00C4540F4420C8834004F456800146F6DFC1
:10003F00E4800B0102040810204080900310E47E3E
:10004F00019360BCA3FF543F30E509541FFEE493B6
:10005F00A360010ECF54C025E060A840B8E493A37D
:10006F00FAE493A3F8E493A3C8C582C8CAC583CAA8
:10007F00F0A3C8C582C8CAC583CADFE9DEE780BE60
:01031C0000E0
:00000001FF
