:030000000200CE2D
:0C00CE00787FE4F6D8FD7581090200037C
:06009D00F5807FE87E0300
:1000A300EF1FAA0670011E4A600BE4FDEDC3947BAB
:0500B30050EE0D80F786
:0100B8002225
:1000B900EF1FAC0670011E4C70F6EF1FAC06700105
:0500C9001E4C70F62240
:10006A00EF24FB601314601914601F24037023E546
:10007A00A0541F4480F5A022E5A0541F44A0F5A077
:10008A0022E5A0541F44C0F5A022E5A0541F44E075
:03009A00F5A022AC
:0C0003007F0512006AE4F5801F12006AFD
:10000F00E4F508F509F508750901AF0974FFA807AC
:10001F00088002C333D8FC12009D0509E509700260
:10002F000508D39408E5086480948040DD750800C6
:10003F00750901D3E5099408E5086480948050C0E0
:10004F00AF0974FFA807088002C333D8FCF412006D
:0B005F009D0509E50970DC050880D84C
:00000001FF
