:03000000020003F8
:0C000300787FE4F6D8FD75812002004AE9
:10026200C0F9A4B0999282F880908880C6C0868E28
:02027200BF7F4C
:0902A000010800010900010A0037
:0D019D0075F00A84ADF01201E27F0A7E00C9
:1001AA00EF1FAA0670011E4A600BE4FDEDC3947BA3
:0501BA0050EE0D80F77E
:0101BF00221D
:1001E20090E00074FFF07401A807088002C333D8BE
:0F01F200FC90C000F0ED9002629390E000F022CC
:1001C0008F0B8D0C1202857FA0120146120274AFB4
:1001D0000B120146120274AF0C1201461202740295
:0201E000029487
:020172008F0BF1
:100174001202857FA0120146120274AF0B120146CF
:100184001202741202857FA1120146120274120235
:08019400018F0C120294AF0C64
:01019C002240
:10008F007F011201728F087F031201728F087F05A3
:10009F001201728F0805080509050AE508D3940AAD
:1000AF004003E4F508E509D3940A4003E4F509E5B4
:1000BF000AD3940A4003E4F50AAD087F011201C088
:1000CF007F147E001201AAAD097F031201C07F14B5
:1000DF007E001201AAAD0A7F051201C07F147E00B7
:0300EF000201AA61
:1000F200E50875F00A84FDE4FF1201A3E5087F011B
:1001020012019D7D107F021201A3E50975F00A8498
:10011200FD7F031201A3E5097F0412019D7D107F7B
:10012200051201A3E50A75F00A84FD7F061201A3F8
:10013200E50A75F00A84ADF07F071201E27F0A7EBC
:04014200000201AA0C
:10024F0090A000E4F090800074FFF012008F120075
:03025F00F280FB2F
:04021E00D2A07F05E6
:10022200EF75F00CA4FFAEF0EF1FAC0670011E4C90
:0502320060030080F3F1
:0102370022A4
:0F028500D2A112021EC2A17F05120222C2A02224
:0C029400C2A112021ED2A17F05020222AC
:10023800C2A0A20092A17F0512022212021EC2A031
:07024800D2A17F0502022292
:1002740012021EA2A19201C2A07F05120222A201B3
:010284002257
:02014600AD0703
:10014800E4FBC2A07F05120222ED30E704D2A180B1
:1001580002C2A17F05120222D2A0ED25E0FD7F0593
:090168001202220BBB08DBC2A04D
:01017100226B
:10020100E4FB12021EED25E0FD30A103430501C20E
:0C021100A07F051202220BBB08E8AF051D
:01021D0022BE
:10000F0002024FE493A3F8E493A34003F68001F2B6
:10001F0008DFF48029E493A3F85407240CC8C333F2
:10002F00C4540F4420C8834004F456800146F6DFC1
:10003F00E4800B01020408102040809002A0E47EAF
:10004F00019360BCA3FF543F30E509541FFEE493B6
:10005F00A360010ECF54C025E060A840B8E493A37D
:10006F00FAE493A3F8E493A3C8C582C8CAC583CAA8
:10007F00F0A3C8C582C8CAC583CADFE9DEE780BE60
:0102A9000054
:00000001FF
