:03000000020003F8
:0C000300787FE4F6D8FD75812002004AE9
:10024000C0F9A4B0999282F880908880C6C0868E4A
:02025000BF7F6E
:03028000010A0070
:0C02120090024093FD1201F77F647E0013
:0B021E00EF1FAC0670011E4C70F622B2
:1001F70090E00074FFF07401A807088002C333D8A9
:0B020700FC90C000F090E000EDF02241
:10008F00AB05AA07900250E493FDE4FF120217EAB2
:10009F007F01120212900250E493FD7F02120217A9
:1000AF007DFF7F031201F70F1201F7EB75F06484E8
:1000BF000F120212EB75F06484E5F075F00A84906C
:1000CF00024093FD7F06120217EB75F00A84E5F0EC
:1000DF0090024093FD7F071201F77F647E000202BA
:0100EF001EF2
:1000F0001202617F9012018F1202527F0112018F52
:1001000012025212026EAD097F0112008F120261BB
:100110007F9112018F1202521201DA8F0912026EC0
:07012000AD097F0102008F11
:100127001202617F9012018F1202527F0312018F18
:1001370012025212026EAD087F0312008F12026183
:100147007F9112018F1202521201DA8F0812026E8A
:07015700AD087F0302008FD9
:10015E0020B32D12021A20B327E50A700F750A017B
:10016E0020B31DAD097F0112008F80F4E50AB401A2
:10017E000FE4F50A20B309AD087F0312008F80F457
:01018E00224E
:1001B90090800074FFF090A000E4F012015EE50A5F
:1001C90070051200F080F4E50AB401EF12012780EE
:0101D900EA3B
:04027800D2A07F058C
:04027C008F0B0022C2
:0D026100D2A1120278C2A112027CC2A0221A
:0A026E00C2A1120278D2A102027CA4
:10022900C2A0A20092A17F0512027CD2A012027C78
:07023900C2A0D2A102027C69
:0E025200120278A2A19201C2A012027CA201A7
:01026000227B
:02018F00AE07B9
:10019100E4FDC2A07F0512027CEE30E704D2A1800B
:1001A10002C2A17F0512027CD2A0EE25E0FE12025E
:0701B1007C0DBD08DDC2A0BA
:0101B8002224
:1001DA00E4FD120278EE25E0FE30A103430601C2D7
:0C01EA00A07F0512027C0DBD08E8AF06E6
:0101F60022E6
:10000F000201B9E493A3F8E493A34003F68001F24D
:10001F0008DFF48029E493A3F85407240CC8C333F2
:10002F00C4540F4420C8834004F456800146F6DFC1
:10003F00E4800B0102040810204080900280E47ECF
:10004F00019360BCA3FF543F30E509541FFEE493B6
:10005F00A360010ECF54C025E060A840B8E493A37D
:10006F00FAE493A3F8E493A3C8C582C8CAC583CAA8
:10007F00F0A3C8C582C8CAC583CADFE9DEE780BE60
:01028300007A
:00000001FF
