:03000000020217E2
:0C021700787FE4F6D8FD75810F02020A22
:1001D800C0F9A4B0999282F880908883C6A1868ECF
:0201E800BF7FD7
:0901B9007D10120196EBFF7E009F
:1001C200EF1FAA0670011E4A600BE4FDEDC3947B8B
:0501D20050EE0D80F766
:0101D7002205
:10016300EF24FB601314601914601F24037023E54C
:10017300A0541F4480F5A022E5A0541F44A0F5A07D
:1001830022E5A0541F44C0F5A022E5A0541F44E07B
:03019300F5A022B2
:10019600AE077F06120163AF067401A80708800246
:1001A600C333D8FCF5807F07120163ED9001D89325
:0301B600F58022AF
:10009900AB07AE0AAF0B7C007D0A12000EAD07E478
:1000A900FF1201BBAE0AAF0B7C007D0A12000E7F66
:1000B900011201BB7F021201B9AE0CAF0D7C007DAC
:1000C9000A12000EAD077F031201BBAE0CAF0D7C07
:1000D900007D0A12000E7F041201BB7F051201B9CF
:1000E900AE0EAF0F7C007D0A12000EAD077F06121F
:1000F90001BBAE0EAF0F7C007D0A12000E7F071206
:090109000196AF037E000201C261
:1001EA00D2AFD2A9758901758C3C758AB0D28C229E
:03000B00020112DD
:10011200C0E0758C3C758AB00509E50970020508D6
:1001220064144508700CF508F509050FE50F700217
:10013200050EE50F643C450E700E050DE50D7002CF
:10014200050C750E00750F00E50D643C450C700E34
:10015200050BE50B7002050A750C00750D00D0E069
:01016200326A
:1001FA007F05120163E4F5801F1201637580FF22F7
:0D020A001201FA1201EA7F0F12009980F92B
:10000E00C2D5EC30E709B2D5E4C39DFDE49CFCEE0D
:10001E0030E715B2D5E4C39FFFE49EFE120044C341
:10002E00E49DFDE49CFC800312004430D507C3E43C
:06003E009FFFE49EFE227C
:10004400BC000BBE0029EF8DF084FFADF022E4CCA0
:10005400F875F008EF2FFFEE33FEEC33FCEE9DEC69
:10006400984005FCEE9DFE0FD5F0E9E4CEFD22EDAF
:10007400F8F5F0EE8420D21CFEADF075F008EF2FF9
:10008400FFED33FD4007985006D5F0F222C398FDEA
:050094000FD5F0EA2287
:00000001FF
