:030000000203C731
:0C03C700787FE4F6D8FD75812002040E5A
:10056A00C0F9A4B0999282F880908883C6A1868E39
:02057A00BF7F41
:04059300020B000057
:070506001204C97F0A7E0008
:10050D00EF1FAA0670011E4A600BE4FDEDC3947B3C
:05051D0050EE0D80F717
:0105220022B6
:0C057C0090800074FFF090A000E4F022DA
:1004C90090E00074FFF07401A807088002C333D8D4
:0F04D900FC90C000F0ED90056A9390E000F022D7
:10045300AE0BAF0C7C007D0A1202D27F0712050699
:100463007D117F06120506AE0BAF0C7C007D641276
:1004730002D27E007F0ACFCDCFCECCCE1202D2AD38
:10048300077F05120506AE0BAF0C7C007D641202DC
:0F049300D2AD077F041204C97F0A7E0002050D57
:10053D008E098F0AE50A150AAE09700215094E607B
:07054D000512045380EE22A9
:100335001204A27FCC1204E87F441204E87FE87E11
:100345000312053D1204A27FCC1204E87FBE1204FD
:10035500E81205238F08120523750B008F0CE50C99
:10036500F50BE508F50CE50B54F87055E50BC4F8ED
:1003750054F0C868F50BE50CC4540F48F50CAE0BEA
:10038500FF7C007D0A1202C08E0B8F0CE508540F0E
:10039500FCE412020BE4FBFA7920783F1200FBC063
:1003A50004C005C006C007AC0BAD0CE4120206D0B4
:1003B50003D002D001D00012000A12023F8E0B8F2B
:0103C5000C2B
:0103C6002214
:0B05880012057C12045312033580F8AA
:040554007F057E00A1
:100558007C007D0C1202C0EF1FAC0670011E4C70AF
:01056800F69C
:01056900226F
:0204E800AB0760
:1004EA00E4FAC294EB139294120554D294EBC31318
:0C04FA00FB0ABA08ED7F057E00020558E1
:10052300E4FAC294EBC313FBD294309403430380E5
:090533001205540ABA08EBAF03EB
:01053C00229C
:1004A200C200D2947F0C7E00120558C2947F507E07
:1004B20000120558D2947F0A7E00120558A2949227
:0604C20000120554A20027
:0104C8002211
:100003000202ABE86480F8E933E83360110460F07E
:10001300ED33EC337009E8FCE9FDEAFEEBFF220463
:1000230060DED3EB9FEA9EE99DE8C2E78CF0C2F75E
:1000330095F0400CE8CCF8E9CDF9EACEFAEBCFFB2A
:1000430012027685D0F05804700320D5B3E804700B
:10005300075002B2D50202B592D5EC0460F7E4CCA6
:10006300C0E0C398F8603B94186008400DD0E0FBF3
:1000730002028DE4FBFAC9FC8028E830E406E4C9F7
:10008300FBE4CAFCE830E305E4C9CACBFCE8540747
:100093006010F8C3E913F9EA13FAEB13FBEC13FC52
:1000A300D8F130F52FC3E49CFCEF9BFFEE9AFEEDF5
:1000B30099FDD0E0FBEF4E4D4C701222DB030202A0
:1000C300B2EC2CFCEF33FFEE33FEED33FDED30E706
:1000D300EB02028DEF2BFFEE3AFEED39FDD0E0FB94
:1000E30050130BBB00030202B5ED13FDEE13FEEF3D
:0800F30013FFEC13FC02028D67
:1000FB00EC4D6011E8497017ED33EC3304600DE4FF
:10010B00FCFFFEFD22E933E8330470F80202AB1268
:10011B00027658046009E4CC248150062850090269
:10012B0002B52840030202B2C0E0EB4A7044B9802A
:10013B0006D0E0FB0202A1EF4E701CBD8008EBFF66
:10014B00EAFEE9FD80EBE98DF0A4FEE5F00201E4A7
:10015B00E9CDF9EAFEEBFFEF89F0A4FCE5F0CE89DF
:10016B00F0A42EFFE435F0CD89F0A42DFEE435F09C
:10017B008067EF4E7005BD80D780C3EF8BF0A4ACCA
:10018B00F0EE8BF0A42CFCE435F0F8EF8AF0A42C05
:10019B00E5F038FCE433CB8DF0A42CFCE5F03BF818
:1001AB00EE8AF0A42CFCE5F038F8E433CF89F0A408
:1001BB002CFCE5F038CF3400CE89F0A42FFFE5F00E
:1001CB003EFEE433C98DF0A42EFEE5F039CD8AF066
:1001DB00A42FFFE5F03EFEE43DFD33D0E0FB5007DE
:1001EB000BBB000F0202B5EC2CFCEF33FFEE33FE22
:0601FB00ED33FD02028D50
:1002010075F020800E75F010800575F0087D007E78
:10021100007F003392D530D503120327EC33401011
:10022100EF33FFEE33FEED33FDEC33FCD5F0ED2281
:0E023100E5F0247EA2D513CC92E7CDCEFF22BD
:10023F00EDD2E7CD33EC3392D524814006E4FFFEB7
:10024F00FDFC22FCE4CFCECDCC24E0501174FF8016
:10025F00EDC3CC13CCCD13CDCE13CECF13CF0470B3
:07026F00F030D5DE02032789
:10027600E9D2E7C933E833F892D5EDD2E7CD33ECCE
:0702860033FC5002B2D52247
:10028D00EC30E7100FBF000C0EBE00080DBD0004D2
:10029D000BEB6014A2D5EB13FCED92E7FD2274FF7E
:1002AD00FCFDFEFF22E480F8A2D574FF13FC7D80D7
:0302BD00E480EFEB
:1003D300020588E493A3F8E493A34003F68001F2B3
:1003E30008DFF48029E493A3F85407240CC8C3332B
:1003F300C4540F4420C8834004F456800146F6DFFA
:10040300E4800B0102040810204080900593E47EF1
:10041300019360BCA3FF543F30E509541FFEE493EE
:10042300A360010ECF54C025E060A840B8E493A3B5
:10043300FAE493A3F8E493A3C8C582C8CAC583CAE0
:10044300F0A3C8C582C8CAC583CADFE9DEE780BE98
:010597000063
:1002C000EF8DF0A4A8F0CF8CF0A428CE8DF0A42E52
:0202D000FE220C
:1002D200BC000BBE0029EF8DF084FFADF022E4CC10
:1002E200F875F008EF2FFFEE33FEEC33FCEE9DECD9
:1002F200984005FCEE9DFE0FD5F0E9E4CEFD22ED1F
:10030200F8F5F0EE8420D21CFEADF075F008EF2F68
:10031200FFED33FD4007985006D5F0F222C398FD59
:050322000FD5F0EA22F6
:0E032700C3E49FFFE49EFEE49DFDE49CFC22E7
:00000001FF
