:030000000200A655
:0C00A600787FE4F6D8FD7581070200BBEE
:10008400C0F9A4B0999282F880908883C6A1868E24
:02009400BF7F2C
:10000300EF24FB601314601914601F24037023E5AD
:10001300A0541F4480F5A022E5A0541F44A0F5A0DE
:1000230022E5A0541F44C0F5A022E5A0541F44E0DC
:03003300F5A02213
:0900B2007F05120003E4F5802231
:10005900EF1FAA0670011E4A600BE4FDEDC3947BF5
:0500690050EE0D80F7D0
:01006E00226F
:100096007F061200037580010F120003758082220D
:10003600AE077F06120003AF067401A80708800208
:10004600C333D8FCF5807F07120003ED900084933C
:03005600F5802210
:10006F00E4FCAF04AD041200367FE87E03120059A2
:04007F000CBC08EEBF
:01008300225A
:0800BB001200B212006F80FB7D
:00000001FF
